:0400000068EF00F0B5
:060008004082CDEF02F082
:100018004080D8CF1AF0E8CF1BF0E0CF1CF0FACF21
:100028001DF0FBCF1EF0E9CF1FF0EACF20F0E1CFA3
:1000380021F0E2CF22F0D9CF23F0DACF24F0F3CFAA
:1000480025F0F4CF26F0F6CF27F0F7CF28F0F8CF39
:1000580029F0F5CF2AF040C02BF041C02CF042C067
:100068002DF043C02EF09EAA03D056EC02F09E9AC3
:100078002EC043F02DC042F02CC041F02BC040F000
:100088002AC0F5FF29C0F8FF28C0F7FF27C0F6FFF0
:1000980026C0F4FF25C0F3FF24C0DAFF23C0D9FF30
:1000A80022C0E2FF21C0E1FF20C0EAFF1FC0E9FF34
:1000B8001EC0FBFF1DC0FAFF1CC0E0FF1BC0E8FF0D
:1000C8001AC0D8FF409010000AEF04F0000E00019B
:1000D800A16F030EA16501D016D0A151010D600ECC
:1000E800F324D96E000EF420DA6EDF50906F905131
:1000F800010D9C0EF324D96E000EF420DA6EA1C017
:10010800DFFFA12BE6D7010E6D6F68C0D9FF69C06C
:10011800DAFF040EDF6E20EE0BF06851D926695124
:10012800DA22000EDF6E000EA16F030EA16501D06A
:1001380026D0A151010D640EF324D96E000EF420CF
:10014800DA6EDF50D8B414D0A1C090F0010E916FD0
:10015800902B02D0D8909137902FFCD7000120EE39
:100168000BF06851D9266951DA229151DF1205D076
:1001780068C0D9FF69C0DAFFDF06A12BD6D7000E09
:10018800A06F000EA16F030EA16501D016D1A15179
:10019800010D9C0EF324D96E000EF420DA6EDF50A8
:1001A800906F9051010D640EF324D96E000EF42067
:1001B800DA6EDF50D8B4FFD0A151D8A427D0A0510F
:1001C800020D010EF326000EF422F3506825D96EB5
:1001D800F4506921DA6EA151010D9C0EF324E16EF1
:1001E800000EF420E26EE750906F9051010D640EFE
:1001F800F324E16E000EF420E26EE750916F915106
:10020800100DF3CFDEFFF4CFDDFF54D0FF0E906F5B
:10021800FF0E916FA151926F936B9051922791515C
:1002280093239C0E9225D96E000E9321DA6EDF502F
:10023800946F9451010D640EF324D96E000EF420CE
:10024800DA6EDF50956F966B951F961F954B962B20
:10025800A151010D9C0EF324D96E000EF420DA6E24
:10026800DF50976F9751010D640EF324D96E000E7D
:10027800F420DA6EDF50986F996B95519827965154
:100288009923983B993BF00E991798510F0B9913A6
:10029800F00E9817A051020D010EF326000EF4225D
:1002A800F3506825D96EF4506921DA6E98C0DEFFE4
:1002B80099C0DDFFA051906F916B0C0E9027000E36
:1002C800912390516825D96E91516921DA6EA15117
:1002D800010D9C0EF324E16E000EF420E26EE7504F
:1002E800926F010E936F922B02D0D8909337922F72
:1002F800FCD700019351DF6E2DD0A151906F916B07
:10030800010E9027000E91239C0E9025D96E000EA9
:100318009121DA6EDF50926F010E936F922B02D00B
:10032800D8909337922FFCD70001A051946F956B0A
:100338000C0E9427000E952394516825D96E95517B
:100348006921DA6E9351DF12A12B68C0D9FF69C009
:10035800DAFFDF06030EA1612DD0A151906F916BDA
:10036800010E9027000E91239C0E9025D96E000E49
:100378009121DA6EDF50926F9251010D640EF324D1
:10038800D96E000EF420DA6EA151010D9C0EF324F3
:10039800E16E000EF420E26EE750946F9451010D67
:1003A800640EF324E16E000EF420E26EDE50E618CF
:1003B800D8B4A3D7A02BA12BE6D6000E9B6F000EB6
:1003C8009A6F000EA16F11D0A151020D010EF326F4
:1003D800000EF422F3506825D96EF4506921DA6EC4
:1003E800DE509A27DD509B23A12BA051A15DD8A0F8
:1003F800EBD7F00E906F0F0E916F9AC092F09BC0E2
:1004080093F0921F931F924B932B905192279151E7
:100418009323A051020D010EF326000EF422F3508F
:100428006825D96EF4506921DA6E92C0DEFF93C058
:10043800DDFF000EA16F040EA16501D02ED0FF0EC6
:10044800906FFF0E916FA151020D010EF326000E61
:10045800F422F3506825D96EF4506921DA6EDECFA4
:1004680092F0DDCF93F0921F931F924B932B9051F4
:10047800922791519323A151020D010EF326000EEC
:10048800F422F3506825D96EF4506921DA6E92C0CF
:10049800DEFF93C0DDFFA12BCED7000E6D6F010EDE
:1004A8006C6F1200000EABB4010E396EAECF38F08F
:1004B8003904D8A40AD03A50D8A407D0000E306E18
:1004C800000E2F6E010E3A6E12003A04D8A406D020
:1004D8003850D8A403D0020E3A6E1200020E3A1811
:1004E800D8A41200305004E1100E2F5CD8A03ED0E2
:1004F80030503CE1140E2F5CD8B038D0F00E146E9A
:10050800FF0E156E2FC016F030C017F014501626C7
:1005180015501722640E1624D96E000E1720DA6EB5
:10052800DF50D8A404D03850D8A489CF37F03F0E74
:10053800386404D0000E196E000E03D0000E196E38
:10054800FA0E186EF00E146EFF0E156E2FC016F010
:1005580030C017F01450162615501722640E1624B2
:10056800D96E000E1720DA6E18C0DFFF140E2F1890
:100578003010D8A403D0010E00016F6F2F4A302A23
:10058800305004E1800E2F5CD8A01200000E3A6EA5
:100598001200FACF02F0FBCF03F0E9CF04F0EACF64
:1005A80005F0E1CF06F0E2CF07F0D9CF08F0DACFB7
:1005B80009F0F3CF0AF0F4CF0BF0F6CF0CF0F7CF39
:1005C8000DF0F8CF0EF0F5CF0FF040C010F041C09D
:1005D80011F042C012F043C013F0F2A403D0F29419
:1005E8001CEC03F013C043F012C042F011C041F0FC
:1005F80010C040F00FC0F5FF0EC0F8FF0DC0F7FFA8
:100608000CC0F6FF0BC0F4FF0AC0F3FF09C0DAFF05
:1006180008C0D9FF07C0E2FF06C0E1FF05C0EAFF36
:1006280004C0E9FF03C0FBFF02C0FAFF40921100BB
:100638003D50020D010EF326000EF422F350000186
:100648006A25D96EF4506B21DA6EDECF35F0DDCF36
:1006580036F03650D76E35C0D6FF3D50D8A410D0EE
:100668003D50010D0B0EF326000EF422F3506A25BF
:10067800D96EF4506B21DA6EDF50FF0A826E0ED00D
:100688003D50010D0B0EF326000EF422F3506A259F
:10069800D96EF4506B21DA6EDF5082126AC0D9FF2E
:1006A8006BC0DAFFDE503D5CD8A005D024EC04F026
:1006B800000E3D6E12003D2A1200000E0001936FDD
:1006C800030E936501D00CD09351010D600EF324F5
:1006D800D96E000EF420DA6E000EDF6E932BF0D781
:1006E800000E936F020E936501D012009329926F4A
:1006F800030E926501D021D09351010D640EF324AD
:10070800D96E000EF420DA6E9251010D640EF324B6
:10071800E16E000EF420E26EDE50E65CD8B002D046
:10072800935101D09251010D600EF324D96E000E41
:10073800F420DA6EDF2A922BDBD7932BD3D7000E67
:100748000001906F030E906501D00CD09051010DFF
:10075800640EF324D96E000EF420DA6E0A0EDF6EF2
:10076800902BF0D7800E6A6F000E6B6F700E686F5B
:10077800000E696F6AC0D9FF6BC0DAFF040EDF6E26
:1007880068C0D9FF69C0DAFF040EDF6E1200D39E7D
:10079800D38CD38AD398D382D390000E6D6E000E7B
:1007A8006B6E000E7E6E000E7F6E000E896E000E60
:1007B800806E070E926E000E816E000E8A6E270EF6
:1007C800936E000E8B6E000E826E000E946E1200F9
:1007D800CBEC03F04DEC04F0A3EC03F03CEC04F09C
:1007E800D08EF28EABA206D000016E2BAB9E9D9AE6
:1007F8003CEC04F000016F51D8B4F4D761EC03F07D
:100808006AEC00F0000E00016F6FECD7AC0EF66ECC
:10081800080EF76E000EF86E0900F5CF3FF000EEF7
:1008280060F0300EEE6AE806FDE100EE2FF0100EE3
:10083800EE6AE806FDE1409040920001ECEF03F01B
:1008480000016D05D8B412006C51D8B41200000E26
:100858006C6F314A322A6AC033F06BC034F068C01A
:100868006AF069C06BF033C068F034C069F01200F8
:10087800B886B888010EAF6E000EB06EAB88AB8E2E
:100888009D8A9F9A000E306E000E2F6E000E3A6EF3
:100898001200F294810ED56EF184F28AF28EF28CF7
:0508A800F28C120001BA
:020000040020DA
:08000000FFFFFFFFFFFFFFFF00
:020000040030CA
:0E000000FF281E1EFF8881FF03C003E003409F
:00000001FF
