:0400000068EF00F0B5
:06000800488256EF02F0F1
:100018004880D8CF14F0E8CF15F0E0CF16F0FACF2B
:1000280017F0FBCF18F0E9CF19F0EACF1AF0E1CFBB
:100038001BF0E2CF1CF0D9CF1DF0DACF1EF0F3CFC2
:100048001FF0F4CF20F0F6CF21F0F7CF22F0F8CF51
:1000580023F0F5CF24F048C025F049C026F04AC067
:1000680027F04BC028F09EAA03D0A5EC02F09E9A78
:1000780028C04BF027C04AF026C049F025C048F0F8
:1000880024C0F5FF23C0F8FF22C0F7FF21C0F6FF08
:1000980020C0F4FF1FC0F3FF1EC0DAFF1DC0D9FF48
:1000A8001CC0E2FF1BC0E1FF1AC0EAFF19C0E9FF4C
:1000B80018C0FBFF17C0FAFF16C0E0FF15C0E8FF25
:1000C80014C0D8FF48901000DCEF03F0000E0001C8
:1000D800936F030E936501D016D09351010D290E2D
:1000E800F324D96E000EF420DA6EDF50826F82514D
:1000F800010D8E0EF324D96E000EF420DA6E93C033
:10010800DFFF932BE6D7010E616F37C0D9FF38C0E8
:10011800DAFF040EDF6E20EE0BF03750D926385088
:10012800DA22000EDF6E000E936F030E936501D086
:1001380026D09351010D2D0EF324D96E000EF42014
:10014800DA6EDF50D8B414D093C082F0010E836FFA
:10015800822B02D0D8908337822FFCD720EE0BF069
:100168003750D9263850DA2200018351DF1205D0E2
:1001780037C0D9FF38C0DAFFDF06932BD6D7000E79
:10018800926F000E936F030E936501D016D19351B1
:10019800010D8E0EF324D96E000EF420DA6EDF50B6
:1001A800826F8251010D2D0EF324D96E000EF420BA
:1001B800DA6EDF50D8B4FFD09351D8A427D092512B
:1001C800020D010EF326000EF422F3503724D96EE7
:1001D800F4503820DA6E9351010D8E0EF324E16E3F
:1001E800000EF420E26EE750826F8251010D2D0E51
:1001F800F324E16E000EF420E26EE750836F835122
:10020800100DF3CFDEFFF4CFDDFF54D0FF0E826F69
:10021800FF0E836F9351846F856B825184278351BE
:1002280085238E0E8425D96E000E8521DA6EDF5067
:10023800866F8651010D2D0EF324D96E000EF42021
:10024800DA6EDF50876F886B871F881F874B882B74
:100258009351010D8E0EF324D96E000EF420DA6E40
:10026800DF50896F8951010D2D0EF324D96E000ED0
:10027800F420DA6EDF508A6F8B6B87518A2788519A
:100288008B238A3B8B3BF00E8B178A510F0B8B13FA
:10029800F00E8A179251020D010EF326000EF42279
:1002A800F3503724D96EF4503820DA6E8AC0DEFF56
:1002B8008BC0DDFF9251826F836B0C0E8227000E7C
:1002C800832382513724D96E83513820DA6E9351B3
:1002D800010D8E0EF324E16E000EF420E26EE7505D
:1002E800846F010E856F842B02D0D8908537842FB8
:1002F800FCD700018551DF6E2DD09351826F836B3F
:10030800010E8227000E83238E0E8225D96E000EE1
:100318008321DA6EDF50846F010E856F842B02D043
:10032800D8908537842FFCD700019251866F876B50
:100338000C0E8627000E872386513724D96E8751E5
:100348003820DA6E8551DF12932B37C0D9FF38C0B9
:10035800DAFFDF06030E93612DD09351826F836B12
:10036800010E8227000E83238E0E8225D96E000E81
:100378008321DA6EDF50846F8451010D2D0EF32432
:10038800D96E000EF420DA6E9351010D8E0EF3240F
:10039800E16E000EF420E26EE750866F8651010D83
:1003A8002D0EF324E16E000EF420E26EDE50E61806
:1003B800D8B4A3D7922B932BE6D6000E8D6F000EE0
:1003C8008C6F000E936F11D09351020D010EF3261E
:1003D800000EF422F3503724D96EF4503820DA6E28
:1003E800DE508C27DD508D23932B9251935DD8A03E
:1003F800EBD7F00E826F0F0E836F8CC084F08DC028
:1004080085F0841F851F844B852B82518427835157
:1004180085239251020D010EF326000EF422F350AB
:100428003724D96EF4503820DA6E84C0DEFF85C0D8
:10043800DDFF000E936F040E936501D02ED0FF0EE2
:10044800826FFF0E836F9351020D010EF326000E8B
:10045800F422F3503724D96EF4503820DA6EDECF08
:1004680084F0DDCF85F0841F851F844B852B825156
:100478008427835185239351020D010EF326000E24
:10048800F422F3503724D96EF4503820DA6E84C041
:10049800DEFF85C0DDFF932BCED7000E616F010E06
:1004A800606F1200FACF02F0FBCF03F0E9CF04F03F
:1004B800EACF05F0E1CF06F0E2CF07F0D9CF08F098
:1004C800DACF09F0F3CF0AF0F4CF0BF0F6CF0CF047
:1004D800F7CF0DF0F8CF0EF0F5CF0FF048C010F0C1
:1004E80049C011F04AC012F04BC013F0F2A403D077
:1004F800F294F2EC02F013C04BF012C04AF011C0B3
:1005080049F010C048F00FC0F5FF0EC0F8FF0DC04D
:10051800F7FF0CC0F6FF0BC0F4FF0AC0F3FF09C0D9
:10052800DAFF08C0D9FF07C0E2FF06C0E1FF05C037
:10053800EAFF04C0E9FF03C0FBFF02C0FAFF4892CC
:100548001100000EABB4010E3F6EAECF3EF03F047B
:10055800D8A40AD04050D8A407D0000E326E000E9E
:10056800316E010E406E12004004D8A406D03E50F1
:10057800D8A403D0020E406E1200020E4018D8A470
:100588001200325019E1040E315CD8B015D02D0E8E
:100598003124D96E000E3220DA6EDF50D8A404D090
:1005A8003E50D8A489CF3DF02D0E3124D96E000ECF
:1005B8003220DA6E3EC0DFFF040E31183210D8A4A4
:1005C80002D0010E466E314A322A325004E1800EC2
:1005D800315CD8A01200000E406E12004350020D8C
:1005E800010EF326000EF422F3503B24D96EF4508A
:1005F8003C20DA6EDECF39F0DDCF3AF03A50D76ED4
:1006080039C0D6FF4350D8A410D04350010D0B0E6B
:10061800F326000EF422F3503B24D96EF4503C200C
:10062800DA6EDF50FF0A826E0ED04350010D0B0EBA
:10063800F326000EF422F3503B24D96EF4503C20EC
:10064800DA6EDF5082123BC0D9FF3CC0DAFFDE50C1
:10065800435CD8A005D0F6EC03F0000E436E120000
:10066800432A1200000E0001856F030E856501D034
:100678000CD08551010D290EF324D96E000EF420FB
:10068800DA6E000EDF6E852BF0D7000E856F020E36
:10069800856501D012008529846F030E846501D019
:1006A80021D08551010D2D0EF324D96E000EF420B2
:1006B800DA6E8451010D2D0EF324E16E000EF42044
:1006C800E26EDE50E65CD8B002D0855101D084518C
:1006D800010D290EF324D96E000EF420DA6EDF2AFC
:1006E800842BDBD7852BD3D7000E0001826F030E36
:1006F800826501D00CD08251010D2D0EF324D96EE4
:10070800000EF420DA6E0A0EDF6E822BF0D7720E1E
:100718003B6E000E3C6E620E376E000E386E3BC0AC
:10072800D9FF3CC0DAFF040EDF6E37C0D9FF38C0EE
:10073800DAFF040EDF6E1200D39ED38CD38AD398CF
:10074800D382D390000E6D6E000E6B6E000E7E6E1F
:10075800000E7F6E000E896E000E806E070E926E80
:10076800000E816E000E8A6E270E936E000E8B6E41
:10077800000E826E000E946E1200A0EC03F01FECC7
:1007880004F078EC03F00EEC04F0D08EF28EABA2FD
:1007980005D0442AAB9E9D9A0EEC04F04650D8B47E
:1007A800F6D736EC03F06AEC00F0000E466EEFD791
:1007B800500EF66E080EF76E000EF86E0900F5CFB3
:1007C80047F000EE60F0220EEE6AE806FDE100EE6A
:1007D80029F01E0EEE6AE806FDE1489048920001F5
:1007E800C1EF03F000016105D8B412006051D8B41C
:1007F8001200000E606F334A342A3BC035F03CC00B
:1008080036F037C03BF038C03CF035C037F036C062
:1008180038F01200B886B888010EAF6E000EB06EC0
:10082800AB88AB8E9D8A9F9A000E326E000E316E99
:10083800000E406E1200F294810ED56EF184F28A99
:09084800F28EF28CF28C12000118
:020000040020DA
:08000000FFFFFFFFFFFFFFFF00
:020000040030CA
:0E000000FF281E1EFF8881FF03C003E003409F
:00000001FF
