:020000040000FA
:0400000028EF00F0F5
:0600080054824EEF03F0EC
:100018005480D8CF46F0E8CF47F0E0CF48F0D9CFAA
:1000280049F0DACF4AF09EAA03D019EC02F09E9A62
:100038004AC0DAFF49C0D9FF48C0E0FF47C0E8FF1F
:1000480046C0D8FF549010007CEF03F0000E526EAB
:10005800030E526401D017D05250010D010EF32443
:10006800D96E000EF420DA6EDF500001606F605127
:10007800010D4D0EF324D96E000EF420DA6E52C035
:10008800DFFF522AE5D7010E1A6E0FC0D9FF10C044
:10009800DAFF040EDF6E20EE0BF00F50D926105059
:1000A800DA22000EDF6E000E526E030E526401D08B
:1000B80027D05250010D050EF324D96E000EF420FE
:1000C800DA6EDF50D8B415D052C060F0010E0001CE
:1000D800616F602B02D0D8906137602FFCD720EE7B
:1000E8000BF00F50D9261050DA2200016151DF12AF
:1000F80005D00FC0D9FF10C0DAFFDF06522AD5D7C6
:10010800000E516E000E526E030E526401D017D1CC
:100118005250010D4D0EF324D96E000EF420DA6E04
:10012800DF500001606F6051010D050EF324D96E98
:10013800000EF420DA6EDF50D8B4FFD05250D8A4A5
:1001480027D05150020D010EF326000EF422F35071
:100158000F24D96EF4501020DA6E5250010D4D0E56
:10016800F324E16E000EF420E26EE750606F6051F8
:10017800010D050EF324E16E000EF420E26EE75047
:10018800616F6151100DF3CFDEFFF4CFDDFF54D066
:10019800FF0E606FFF0E616F5250626F636B6051AC
:1001A8006227615163234D0E6225D96E000E6321CB
:1001B800DA6EDF50646F6451010D050EF324D96EB9
:1001C800000EF420DA6EDF50656F666B651F661FE0
:1001D800654B662B5250010D4D0EF324D96E000E5F
:1001E800F420DA6EDF50676F6751010D050EF324B6
:1001F800D96E000EF420DA6EDF50686F696B6551B6
:10020800682766516923683B693BF00E6917685196
:100218000F0B6913F00E68175150020D010EF326EB
:10022800000EF422F3500F24D96EF4501020DA6E29
:1002380068C0DEFF69C0DDFF5150606F616B0C0E56
:100248006027000E612360510F24D96E6151102080
:10025800DA6E5250010D4D0EF324E16E000EF420BB
:10026800E26EE750626F010E636F622B02D0D89086
:100278006337622FFCD700016351DF6E2DD05250D7
:10028800606F616B010E6027000E61234D0E6025C3
:10029800D96E000E6121DA6EDF50626F010E636F56
:1002A800622B02D0D8906337622FFCD751500001DF
:1002B800646F656B0C0E6427000E652364510F2470
:1002C800D96E65511020DA6E6351DF12522A0FC0C1
:1002D800D9FF10C0DAFFDF06030E52602DD052504E
:1002E800606F616B010E6027000E61234D0E602563
:1002F800D96E000E6121DA6EDF50626F6251010D16
:10030800050EF324D96E000EF420DA6E5250010D5A
:100318004D0EF324E16E000EF420E26EE750646F98
:100328006451010D050EF324E16E000EF420E26E17
:10033800DE50E618D8B4A3D7512A522AE5D6000EC3
:100348004C6E000E4B6E000E526E11D05250020DC4
:10035800010EF326000EF422F3500F24D96EF45048
:100368001020DA6EDE504B26DD504C22522A5150B6
:10037800525CD8A0EBD7F00E0001606F0F0E616FD2
:100388004BC062F04CC063F0621F631F624B632B6B
:1003980060516227615163235150020D010EF3260B
:1003A800000EF422F3500F24D96EF4501020DA6EA8
:1003B80062C0DEFF63C0DDFF000E526E040E5264A1
:1003C80001D02ED0FF0E606FFF0E616F5250020DEC
:1003D800010EF326000EF422F3500F24D96EF450C8
:1003E8001020DA6EDECF62F0DDCF63F0621F631F8C
:1003F800624B632B60516227615163235250020D97
:10040800010EF326000EF422F3500F24D96EF45097
:100418001020DA6E62C0DEFF63C0DDFF522ACED73D
:10042800000E1A6E010E196E1200000EABB4010E0A
:10043800176EAECF16F01704D8A40AD01850D8A457
:1004480007D0000E0A6E000E096E010E186E12001B
:100458001804D8A406D01650D8A403D0020E186EDB
:100468001200020E1818D8A412000A5019E1040E3E
:10047800095CD8B015D0050E0924D96E000E0A20E3
:10048800DA6EDF50D8A404D01650D8A489CF15F05E
:10049800050E0924D96E000E0A20DA6E16C0DFFF99
:1004A800040E09180A10D8A402D0010E206E094AB9
:1004B8000A2A0A5004E1800E095CD8A01200000E36
:1004C800186E12001D50020D010EF326000EF422C4
:1004D800F3501324D96EF4501420DA6EDECF11F0E5
:1004E800DDCF12F01250D76E11C0D6FF1D50D8A420
:1004F80010D01D50010D0B0EF326000EF422F35000
:100508001324D96EF4501420DA6EDF50FF0A826E7D
:100518000ED01D50010D0B0EF326000EF422F350E1
:100528001324D96EF4501420DA6EDF50821213C0EF
:10053800D9FF14C0DAFFDE501D5CD8A005D065ECE9
:1005480003F0000E1D6E12001D2A1200000E4E6EE2
:10055800030E4E6401D00CD04E50010D010EF32451
:10056800D96E000EF420DA6E000EDF6E4E2AF0D738
:10057800000E4E6E020E4E6401D012004E284D6ED3
:10058800030E4D6401D021D04E50010D050EF32409
:10059800D96E000EF420DA6E4D50010D050EF324CD
:1005A800E16E000EF420E26EDE50E65CD8B002D0B8
:1005B8004E5001D04D50010D010EF324D96E000E9E
:1005C800F420DA6EDF2A4D2ADBD74E2AD3D7000E65
:1005D8004B6E030E4B6401D00CD04B50010D050E31
:1005E800F324D96E000EF420DA6E0A0EDF6E4B2A61
:1005F800F0D7310E136E000E146E210E0F6E000E22
:10060800106E13C0D9FF14C0DAFF040EDF6E0FC0DE
:10061800D9FF10C0DAFF040EDF6E1200D39ED38C10
:10062800D38AD398D382D390000E6D6E000E6B6E72
:10063800000E7E6E000E7F6E000E896E000E806EBC
:10064800070E926E000E816E000E8A6E270E936E54
:10065800000E8B6E000E826E000E946E120012EC6D
:1006680003F0A1EC03F0EBEC02F090EC03F0D08E79
:10067800F28EABA205D01E2AAB9E9D9A90EC03F099
:100688002050D8B4F6D7AAEC02F02AEC00F0000EFD
:10069800206EEFD7D9CF42F0DACF43F0F3CF44F052
:1006A800F4CF45F0F2A403D0F29466EC02F045C012
:1006B800F4FF44C0F3FF43C0DAFF42C0D9FF5492AD
:1006C80011001A04D8B412001950D8B41200000E40
:1006D800196E0B4A0C2A13C00DF014C00EF00FC08F
:1006E80013F010C014F00DC00FF00EC010F012007F
:1006F800540EF66E070EF76E000EF86E0900F5CF71
:1007080053F000EE01F0400EEE6AE806FDE1549069
:100718005492000133EF03F0B886B888010EAF6E2B
:10072800000EB06EAB88AB8E9D8A9F9A000E0A6E43
:10073800000E096E000E186E1200F294810ED56E2E
:0D074800F184F28AF28EF28CF28C12000124
:020000040020DA
:08000000FFFFFFFFFFFFFFFF00
:020000040030CA
:0E000000FF281E1EFF8881FF03C003E003409F
:00000001FF
